:100000000C94EF270C9420280C9420280C94202882
:100010000C9420280C9420280C9420280C94202840
:100020000C9420280C9420280C9420280C94202830
:100030000C9420280C9420280C9420280C94202820
:100040000C9420280C94F8900C9420280C942028D0
:100050000C9420280C9420280C94B7E60C9439DAE0
:100060000C9420280C94664E0C9420280C94202884
:100070000C9420280C9420280C9420280C942028E0
:100080000C94CE980C9420280C9420280C942028B2
:100090000C9420280C9420280C9420280C942028C0
:1000A0000C9420280C9420280C94A0980C942028C0
:1000B0000C9420280C9420280C9420280C947298DE
:1000C0000C9420280C9420280C9420280C94202890
:1000D0000C9420280C9420280C9420280C94202880
:1000E0000C94202895AFCDAFCFAFDCAFE2AFE5AF3A
:1000F000EDAF88D88BD87AD87ED884D8C2D88FD89C
:1001000093D899D89DD8A1D8A7D8ABD8AFD8C2D802
:10011000B5D8B9D8BDD855D95AD95FD969D973D905
:10012000ECD97DD985D98DD997D9A1D9ABD9BAD9EF
:10013000C4D9ECD9CED9D8D9E2D9084AD73B3BCEDD
:10014000016E84BCBFFDC12F3D6C74319ABD5683D6
:100150003DDA3D00C77F11BED9E4BB4C3E916BAA8E
:10016000AABE000000803F05A84CCDB2D44EB938DD
:1001700036A9020C50B9918688083CA6AAAA2ABEC4
:10018000000000803F000D94DC050D94B7054E4142
:100190004E494E495459494E46CDCCCC3D0AD72301
:1001A0003C17B7D13877CC2B329595E6241FB14F49
:1001B0000A000020410000C84200401C4620BCBE8E
:1001C0004CCA1B0E5AAEC59D7400407A10F35A00FB
:1001D000A0724E18090010A5D4E80000E876481770
:1001E0000000E40B54020000CA9A3B000000E1F555
:1001F00005000080969800000040420F000000A01B
:100200008601000000102700000000E80300000045
:10021000006400000000000A00000000000100006F
:100220000000002C76D888DC674F0823DFC1DFAEE2
:1002300059E1B1B796E5E3E453C63AE651997696AB
:10024000E8E6C28426EB898C9B62ED407C6FFCEF74
:10025000BC9C9F40F2BAA56FA5F490055A2AF75CA2
:10026000936B6CF9676DC11BFCE0E40D47FEF52054
:10027000E6B500D0ED902E0300943577050080841C
:100280001E080000204E0A000000C80C3333333330
:100290000F986E12831141EF8D2114893BE655169C
:1002A000CFFEE6DB18D1844B381BF77C1D901DA4D4
:1002B000BBE424203284725E228100C9F124ECA1C7
:1002C000E53D27434F4D4D554E49434154494F4E0F
:1002D0000044525952554E004552524F5253004914
:1002E0004E464F004543484F0047322F4733206268
:1002F000616420706172616D65746572730A005388
:100300006C6565702E2E2E004E6F206D6F76652EFB
:10031000005344207072696E74696E67206279744C
:100320006520004E6F74205344207072696E7469AA
:100330006E670A0046696C652064656C6574656467
:100340003A0044656C6574696F6E206661696C651E
:10035000642C2046696C653A20006F70656E2066DB
:1003600061696C65642C2046696C653A20002569DA
:10037000730025696D20256973002569682025694A
:100380006D20256973002569642025696820256929
:100390006D20256973002569792025696420256908
:1003A000682025696D20256973005072696E74207C
:1003B00074696D653A200050726F7465637465648A
:1003C0002050696E0A004578747275646572202544
:1003D00073007777772E6378737733642E636F6D4E
:1003E00000E402DF02D802D102C3026F6666004455
:1003F000454255473A004B494C4C45442E20004D50
:1004000031313320530042656420646F6E652E00E5
:1004100020573A004265642048656174696E672E12
:10042000004361703A454D455247454E43595F5030
:1004300041525345523A300A004361703A434153A6
:10044000455F4C494748545F4252494748544E45DE
:1004500053533A300A004361703A544F47474C4572
:100460005F4C49474854533A300A004361703A534D
:100470004F4654574152455F504F5745523A300A04
:10048000004361703A4C4556454C494E475F4441E4
:1004900054413A310A004361703A5A5F50524F4218
:1004A000453A310A004361703A4155544F4C455624
:1004B000454C3A310A004361703A5052494E545FFC
:1004C0004A4F423A310A004361703A50524F475204
:1004D0004553533A300A004361703A4155544F52E4
:1004E00045504F52545F54454D503A310A004361D4
:1004F000703A454550524F4D3A310A004649524DE7
:10050000574152455F4E414D453A4D61726C696E9F
:10051000204D61726C696E312E312E362028437267
:1005200065616C69747933442920534F55524345B2
:100530005F434F44455F55524C3A68747470733A48
:100540002F2F6769746875622E636F6D2F4D61720E
:100550006C696E4669726D776172652F4D61726C60
:10056000696E2050524F544F434F4C5F5645525383
:10057000494F4E3A312E30204D414348494E455F58
:10058000545950453A7777772E6378737733642ED2
:10059000636F6D2045585452554445525F434F5543
:1005A0004E543A3120555549443A63656465326189
:1005B00032662D343161322D343734382D39623181
:1005C000322D6335356336326633363766660A0058
:1005D0002F2F20007A5F6D696E3A2000795F6D6978
:1005E0006E3A2000785F6D696E3A20005265706F38
:1005F0007274696E6720656E6473746F70207374B3
:10060000617475730A004D31343520533C696E6452
:1006100065783E206F7574206F662072616E676525
:100620002028302D31290A0053657474696E6720C3
:1006300054726176656C20416363656C65726174A8
:10064000696F6E3A200053657474696E6720526555
:10065000747261637420416363656C65726174696F
:100660006F6E3A200053657474696E67205072692A
:100670006E7420416363656C65726174696F6E3A74
:10068000200053657474696E67205072696E74201F
:10069000616E642054726176656C20416363656CA1
:1006A00065726174696F6E3A2000205A002059000B
:1006B000580020204D61783A2000205A002059002F
:1006C000580020204D696E3A20004F6E20004F6682
:1006D0006600536F667420656E6473746F70733A4E
:1006E0002000000136372603FF3C3D380EFF2E3038
:1006F0003E12FFFF0C0809FFFFFF1A1C18FFFF083E
:10070000440AFF43FFFFFFFFFFFF206F7574206F58
:10071000662072616E67650A00536572766F20000D
:100720003A200020536572766F200020643A002042
:10073000693A0020703A0043290A0061626C6564DE
:1007400020286D696E2074656D702000436F6C64A5
:10075000206578747275646573206172652000236A
:10076000646566696E65202044454641554C545F7A
:100770004B64200023646566696E6520204445460D
:1007800041554C545F4B69200023646566696E6572
:10079000202044454641554C545F4B702000504941
:1007A00044204175746F74756E652066696E697357
:1007B000686564212050757420746865206C6173CD
:1007C00074204B702C204B6920616E64204B642098
:1007D000636F6E7374616E74732066726F6D2062E6
:1007E000656C6F7720696E746F20436F6E66696702
:1007F00075726174696F6E2E680A00504944204119
:1008000075746F74756E65206661696C656421200E
:1008100074696D656F75740A0050494420417574A0
:100820006F74756E65206661696C6564212054651E
:100830006D706572617475726520746F6F20686980
:1008400067680A00204B643A2000204B693A200078
:10085000204B703A20000A20436C61737369632057
:10086000504944200A002054753A2000204B753A24
:100870002000206D61783A2000206D696E3A2000DA
:1008800020643A200020626961733A20004F666656
:100890000A00466164652048656967687420004203
:1008A0006564204C6576656C696E672000466169F9
:1008B0006C656420746F20656E61626C65204265B2
:1008C00064204C6576656C696E670A004F666673D6
:1008D000657473206170706C696564004572723A6A
:1008E00020546F6F206661722100546F6F20666123
:1008F000722066726F6D207265666572656E6365E3
:1009000020706F696E740A003A20007A5F6D696E1C
:100910003A20202D3230207A5F6D61783A202032E3
:1009200030005A204F666673657420004E6F206356
:10093000617365206C696768740A00416374697645
:10094000652045787472756465723A2000556E6B47
:100950006E6F776E20636F6D6D616E643A2022005A
:100960004E6F204C696E65204E756D626572207702
:1009700069746820636865636B73756D2C204C61C6
:100980007374204C696E653A20004B494C4C4544C9
:100990002E200053544F505045442E200050726971
:1009A0006E7465722073746F707065642064756511
:1009B00020746F206572726F72732E2046697820E2
:1009C000746865206572726F7220616E6420757341
:1009D00065204D39393920746F20726573746172E6
:1009E000742E202854656D7065726174757265206F
:1009F00069732072657365742E2053657420697461
:100A00002061667465722072657374617274696EB8
:100A100067290A004E6F20436865636B73756D200C
:100A200077697468206C696E65206E756D62657299
:100A30002C204C617374204C696E653A2000636809
:100A400065636B73756D206D69736D617463682C7C
:100A5000204C617374204C696E653A20004C696EBD
:100A600065204E756D626572206973206E6F74200B
:100A70004C617374204C696E65204E756D626572B1
:100A80002B312C204C617374204C696E653A200028
:100A90004D313130004D3331004D3834205820591C
:100AA000205A2045005344207265616420657272AB
:100AB0006F720A00446F6E65207072696E74696EA1
:100AC000672066696C650A0020496E76616C69640E
:100AD0002065787472756465722000000000000063
:100AE0000000000000000000006B4300006B4300AA
:100AF00000A04353544F505045442E20005072697B
:100B00006E7465722073746F7070656420647565AF
:100B100020746F206572726F72732E204669782080
:100B2000746865206572726F7220616E64207573DF
:100B300065204D39393920746F2072657374617284
:100B4000742E202854656D7065726174757265200D
:100B500069732072657365742E20536574206974FF
:100B60002061667465722072657374617274696E57
:100B700067290A0053544F502063616C6C656420F0
:100B800062656361757365206F6620424C546F75B2
:100B90006368206572726F72202D207265737461B4
:100BA00072742077697468204D3939390A004572AA
:100BB000726F722077726974696E6720746F204556
:100BC0004550524F4D210A00290A00206279746570
:100BD000733B20637263200053657474696E67739E
:100BE0002053746F726564202800202863616C6351
:100BF000756C6174656429210A0020213D2000453F
:100C00004550524F4D20435243206D69736D6174BE
:100C10006368202D202873746F7265642920002971
:100C20000A002062797465733B20637263200020A0
:100C300073746F7265642073657474696E67732072
:100C4000726574726965766564202800204D617252
:100C50006C696E3D563431290A0028454550524F83
:100C60004D3D00454550524F4D2076657273696F7A
:100C70006E206D69736D6174636820007C3C3E5E1C
:100C80002B3D3F2F5B5D3B2C2A225C0000002000A7
:100C90002300260029002C002F0032000001000054
:100CA00003010601090105050505070508080808EF
:100CB000020202020A0A08080404040401010101F4
:100CC00001010101030303030303030304070707EF
:100CD0000C0C0C0C0C0C0C0C020202020606060694
:100CE000060606060B0B0B0B0B0B0B0B0102102061
:100CF0002008081020401020408002010201080452
:100D000002010102040810204080804020100804E5
:100D1000020180040201804020100804020108043E
:100D20000201010204081020408001020408102082
:100D3000408000000A0B02090C0D0E080703040195
:100D400000000000000000000000000000000000A3
:100D50000000000000000000000000000000121170
:100D60001000000000000000000000000000000073
:100D700000000000000000004B494C4C45442E2070
:100D800000202D20496E76616C696420657874724C
:100D900075646572206E756D62657220210A00208F
:100DA00020506C616E6E657242756666657242793E
:100DB0007465733A20002046726565204D656D6F3D
:100DC00072793A2000436F6D70696C65643A204F08
:100DD000637420203920323031380A00207C2041D1
:100DE0007574686F723A202843523230424C546F07
:100DF000756368290A00323031372D31302D31309A
:100E00002031323A303000204C61737420557064C8
:100E1000617465643A20004D61726C696E312E31E7
:100E20002E360A004D61726C696E0020536F667435
:100E3000776172652052657365740A00205761748A
:100E40006368646F672052657365740A002042729C
:100E50006F776E206F75742052657365740A002079
:100E600045787465726E616C2052657365740A0012
:100E7000506F77657255700A0073746172740A005E
:100E80006572726F722077726974696E6720746F11
:100E90002066696C650A00456E6473746F70732018
:100EA000256320256320256320256300205A3A000E
:100EB00020593A0020583A00656E6473746F70735D
:100EC000206869743A2000446F6E6520736176690A
:100ED0006E672066696C652E0A004D3239004D65DB
:100EE000736820706F696E742063616E6E6F74201A
:100EF0006265207265736F6C7665640A0077777738
:100F00002E6378737733642E636F6D00526573754B
:100F10006D696E67207072696E7400436C69636BF3
:100F200020746F20726573756D652E2E2E00456ED0
:100F3000642066696C65206C6973740A0042656799
:100F4000696E2066696C65206C6973740A00202FD5
:100F5000002042403A0020403A006F6B0048656133
:100F600074696E6720646F6E652E0020573A0045E5
:100F700078747275646572202573007777772E63B5
:100F800078737733642E636F6D007777772E63788D
:100F9000737733642E636F6D204F66662E00205A80
:100FA0003A0020593A0020436F756E7420583A0079
:100FB00020453A00205A3A0020593A00583A004D4C
:100FC00065736820706F696E742063616E6E6F74F4
:100FD000206265207265736F6C7665640A004D341B
:100FE000323120696E636F72726563742070617252
:100FF000616D657465722075736167650A00537071
:1010000065656400D1D200537065656400466C6FFD
:101010007700CCADD1D200466C6F77005072656816
:1010200065617420504C4120456E640050726568C3
:1010300065617420504C4120456E640050726568B3
:1010400065617420504C4120456E640050726568A3
:1010500065617420504C412042656400507265689F
:1010600065617420504C4120C4C7005072656865AA
:10107000617420504C41204265640050726568657F
:1010800061742041425320456E640050726568656A
:1010900061742041425320456E640050726568655A
:1010A00061742041425320456E640050726568654A
:1010B0006174204142532042656400507265686546
:1010C00061742041425320C4C70050726568656155
:1010D0007420414253204265640047323800417514
:1010E000746F20686F6D6500BBBCBD004175746F87
:1010F00020686F6D6500426564204C6576656C699B
:101100006E6700B1B2CFD000426564204C65766551
:101110006C696E67004D3432380053657420686F17
:101120006D65206F66667365747300BEBFBBBCBD22
:10113000C0C10053657420686F6D65206F6666736B
:101140006574730044697361626C652073746570C3
:101150007065727300B5B6B7B8B9BA004469736107
:10116000626C6520737465707065727300436F6F95
:101170006C646F776E00C8C900436F6F6C646F77E3
:101180006E005072656865617420504C4100C3C4A4
:1011900020504C41005072656865617420504C418C
:1011A00000507265686561742041425300C3C420D9
:1011B000414253005072656865617420414253009A
:1011C0004D3834004732380A47323900506C656177
:1011D0007365207265736574005052494E544552D0
:1011E0002048414C544544005072696E7465722029
:1011F00068616C7465642E206B696C6C28292063AF
:10120000616C6C6564210A0062696E004D31313792
:1012100020494E56414C494420444154412E004DF2
:10122000313137205072696E74696E672E2E2E0030
:101230004730205A25730047323820583020593023
:10124000004730205A257300473932205A25732031
:101250004525730062696E00000000000000000078
:10126000000000000000F0420000F04200000041D9
:10127000000000005761726E696E673A20486F6D1A
:10128000696E672042756D702044697669736F726C
:10129000203C20310A000202040000A0400000A00F
:1012A000400000004000006B4300006B430000A0C2
:1012B00043FFFFFF20746F6F206C6F6E67206578AF
:1012C00074727573696F6E2070726576656E746581
:1012D000640A0020636F6C642065787472757369AA
:1012E0006F6E2070726576656E7465640A00436186
:1012F0006E6E6F74206F70656E20737562646972B4
:1013000020002E0A006F70656E206661696C65644E
:101310002C2046696C653A200057726974696E67C3
:1013200020746F2066696C653A2000656E71756582
:101330007565696E672022006563686F3A0024F462
:10134000D43050C38E20C2A24017828B7011127A03
:10135000910D816CD90AA861E108C75866076151EF
:1013600043061E4B5D05C145A7041A411104093D02
:101370009803713931034036DB0265339102D43072
:101380005402802E1D02632CEE01752AC501B0287F
:10139000A001102781018F2564012B244B01E0223D
:1013A0003401AC211F018D200D01801FFC00841E23
:1013B000ED00971DDF00B81CD200E61BC600201B05
:1013C000BC00641AB200B219A8000A19A0006A1879
:1013D0009900D117910040178B00B5168400311683
:1013E0007E00B31579003A157300C7146F005814C6
:1013F0006A00EE1366008813630025135E00C712AF
:101400005B006C12570015125400C111510070118D
:101410004F0021114B00D61049008D104700461097
:10142000440002104200C00F4000800F3E00420FF7
:101430003C00060F3B00CB0E3800930E37005C0ECD
:101440003500270E3400F30D3200C10D3100900D30
:101450003000600D2E00320D2D00050D2C00D90C32
:101460002B00AE0C2900850C29005C0C2700350CE4
:1014700027000E0C2600E80B2400C40B2400A00B50
:1014800023007D0B23005A0B2100390B2100180B80
:101490002000F80A1F00D90A1E00BB0A1E009D0A80
:1014A0001D00800A1D00630A1C00470A1B002C0A4D
:1014B0001B00110A1A00F7091A00DD091900C409F6
:1014C0001900AB091900920917007B09180063097C
:1014D00017004C09160036091600200916000A09E3
:1014E0001500F5081500E0081400CC081400B80831
:1014F0001400A4081400900813007D0812006B0863
:10150000130058081200460812003408110023087E
:1015100011001208110001081100F0071000E00787
:101520001000D0071000C0071000B0070F00A1077F
:10153000100091070E0083070F0074070F00650766
:101540000E0057070E0049070E003B070D002E073F
:101550000E0020070D0013070D0006070D00F90609
:101560000C00ED060D00E0060C00D4060C00C806C9
:101570000C00BC060C00B0060C00A4060B0099067B
:101580000C008D060B0082060B0077060B006C0624
:101590000B0061060A0057060B004C060A004206C3
:1015A0000A0038060A002E060A0024060A001A0657
:1015B0000A001006090007060A00FD050900F405E7
:1015C0000900EB050900E2050900D9050900D0056D
:1015D0000900C7050900BE050900B5050800AD05ED
:1015E0000800A50509009C050800940508008C0565
:1015F0000800840508007C050800740508006C05D7
:101600000700650508005D050700560508004E0542
:1016100007004705070040050800380507003105A9
:1016200007002A050700230507001C05060016050C
:1016300007000F0507000805060002050700FB0468
:101640000600F5040700EE040600E8040600E204C4
:101650000700DB040600D5040600CF040600C90419
:101660000600C3040600BD040600B7040600B1046A
:101670000500AC040600A6040600A00405009B04B7
:10168000060095040500900406008A040500850400
:101690000500800406007A04050075040500700446
:1016A00005006B04050066040500610405005C0488
:1016B000050057040500520405004D0405004804C8
:1016C0000500430405003E0404003A040500350407
:1016D0000500300404002C04050027040400230442
:1016E00005001E0404001A04040016040500110479
:1016F00004000D04040009040500040404000004AF
:101700000400FC030400F8030400F4030400F003E5
:101710000400EC030400E8030400E4030400E00315
:101720000400DC030400D8030400D4030400D00345
:101730000400CC030400C8030300C503030024F421
:1017400004D9201BC40C5C0E9804C4095F02650711
:101750007101F405F900FB04B30048048700C103DC
:1017600069005803550003034500BE023A00840295
:10177000310053022A002902250004022000E4015E
:101780001C00C8011900AF01170098011400840162
:101790001300710110006101100051010E0043019E
:1017A0000D0036010B002B010B0020010B00150171
:1017B00009000C01090003010800FB000800F30008
:1017C0000800EB000700E4000600DE000600D80079
:1017D0000600D2000600CC000500C7000500C200CC
:1017E0000500BD000400B9000400B5000400B1000C
:1017F0000400AD000400A9000400A5000300A2003D
:1018000003009F0004009B00030098000300950064
:10181000020093000300900003008D0002008B0083
:10182000030088000200860002008400030081009B
:1018300002007F0002007D0002007B0002007900B0
:1018400002007700010076000200740002007200BE
:101850000100710002006F0002006D0001006C00C9
:1018600002006A00010069000200670001006600D2
:1018700001006500010064000200620001006100D7
:101880000100600001005F0002005D0001005C00DB
:1018900001005B0001005A000100590001005800DE
:1018A00001005700010056000100550001005400DE
:1018B00001005300000053000100520001005100DC
:1018C0000100500001004F0001004E0000004E00DA
:1018D00001004D0001004C0001004B0000004B00D6
:1018E00001004A00010049000100480000004800D2
:1018F00001004700010046000000460001004500CD
:1019000000004500010044000100430000004300C6
:1019100001004200000042000100410000004100BF
:101920000100400001003F0000003F0001003E00B8
:1019300000003E0001003D0000003D0001003C00B1
:1019400000003C0000003C0001003B0000003B00A8
:1019500001003A0000003A0001003900000039009F
:101960000100380000003800000038000100370096
:10197000000037000100360000003600000036008D
:101980000100350000003500000035000100340082
:101990000000340000003400010033000000330078
:1019A000000033000100320000003200000032006D
:1019B0000100310000003100000031000100300062
:1019C000000030000000300001002F0000002F0058
:1019D00000002F0000002F0001002E0000002E004C
:1019E00000002E0001002D0000002D0000002D0041
:1019F00000002D0001002C0000002C0000002C0035
:101A000000002C0001002B0000002B0000002B0028
:101A100000002B0001002A0000002A0000002A001C
:101A200000002A0001002900000029000000290010
:101A30000000290000002900010028000000280003
:101A400000002800000028000000280001002700F6
:101A500000002700000027000000270000002700EA
:101A600001002600000026000000260000002600DD
:101A700000002600010025000000250000002500D0
:101A800000002500000025000000250001002400C2
:101A900000002400000024000000240000002400B6
:101AA00001002300000023000000230000002300A9
:101AB000000023000000230000002300010022009A
:101AC000000022000000220000002200000022008E
:101AD0000000220001002100000021000000210080
:101AE0000000210000002100000021000000210072
:101AF0000100200000002000000020000000200065
:101B00000000200000002000000020000000200055
:101B100001001F0000001F0000001F0000001F0048
:101B200000001F0000001F0000001F0001001E0039
:101B300000001E0000001E0000001E0000004D38C6
:101B40003420582059205A20450025753A25303236
:101B50007500253032753A253032750025756420C0
:101B6000253032753A25303275005A005900580038
:101B700009200001EF870E000000000000000000B7
:101B80003FFFF00224489100000000000000000028
:101B900038007004044891000000000000000000BC
:101BA00030FC3004078091000000000000000000BD
:101BB00020FC1004050111000000000000000000DE
:101BC00020781004048211000000000000000000D2
:101BD0002030100404841100000000000000000008
:101BE0002C00D002244811001FE00000104100002A
:101BF0002E31D001CE6F8E003FF000000820800013
:101C00002F7BD000000000003FF000000820800083
:101C10002F7BD000F80000003FF0000010410000D2
:101C20002E31D000440000001FE0000020820000A0
:101C30002C00D000440000001FE000004104000020
:101C40002030100044D8E0003FF0000041040000C4
:101C500020781000786110003FF000002082000022
:101C600020FC1000404110003FF000001041000037
:101C700030FC3000404110000FC0000000000000A8
:101C8000380070004041100007800000FFFFC000D6
:101C90003FFFF000E0F0E00003000000FFFFC000A5
:101CA00000000001EF870E000000000000000000AF
:101CB0003FFFF002244891000000000000000000F7
:101CC000380070040448910000000000000000008B
:101CD00033873004078091000000000000000000FE
:101CE000278790040501110000000000000000009B
:101CF0002F87D004048211000000000000000000C3
:101D00002F87D004048411000000000000000000B0
:101D10002F03D002244811001FE00000082080009B
:101D200020301001CE6F8E003FF000000410400004
:101D300020781000000000003FF000000410400078
:101D400020781000F80000003FF00000082080001C
:101D500020301000440000001FE00000104100008F
:101D60002F03D000440000001FE00000208200008C
:101D70002F87D00044D8E0003FF000002082000010
:101D80002F87D000786110003FF000001041000064
:101D900027879000404110003FF00000082080009D
:101DA00033873000404110000FC0000000000000E9
:101DB000380070004041100007800000FFFFC000A5
:101DC0003FFFF000E0F0E00003000000FFFFC00074
:101DD0000000005072696E74207061757365640054
:101DE00047323820583020593000416363656C0019
:101DF000416363656C00416363656C00412D7265EE
:101E0000747261637400412D726574726163740051
:101E1000412D7265747261637400412D7472617634
:101E2000656C00412D74726176656C00412D747291
:101E30006176656C00416D6178205800416D617874
:101E4000205800416D6178205800416D617820591B
:101E500000416D6178205900416D61782059004141
:101E60006D6178205A00416D6178205A00416D61A2
:101E700078205A00416D6178204500416D617820DD
:101E80004500416D617820450056782D6A65726B7A
:101E90000056782D6A65726B0056782D6A65726BF4
:101EA0000056792D6A65726B0056792D6A65726BE2
:101EB0000056792D6A65726B00567A2D6A65726BD1
:101EC00000567A2D6A65726B00567A2D6A65726BC0
:101ED0000056652D6A65726B0056652D6A65726BDA
:101EE0000056652D6A65726B005873746570732FA8
:101EF0006D6D005873746570732F6D6D0058737439
:101F00006570732F6D6D005973746570732F6D6DEF
:101F1000005973746570732F6D6D0059737465701B
:101F2000732F6D6D005A73746570732F6D6D005A49
:101F300073746570732F6D6D005A73746570732FB1
:101F40006D6D004573746570732F6D6D004573740E
:101F50006570732F6D6D004573746570732F6D6DB3
:101F6000005A204F6666736574005A204F66667388
:101F70006574005A204F66667365740056656C6F11
:101F8000636974790056656C6F636974790056658E
:101F90006C6F6369747900416363656C6572617429
:101FA000696F6E00416363656C65726174696F6E21
:101FB00000416363656C65726174696F6E004A65A8
:101FC000726B004A65726B004A65726B00537465F0
:101FD00070732F6D6D0053746570732F6D6D0053AA
:101FE000746570732F6D6D004520696E206D6D33C3
:101FF000004520696E206D6D33004520696E206DAF
:102000006D330046696C2E204469612E0046696C70
:102010002E204469612E0046696C2E204469612E91
:10202000004F6666004F6E200043616E6E6F742035
:10203000656E746572207375626469723A2000027D
:102040002E2E00000C0B00FE070192032120FFFF43
:102050000AFF07FF00000006000A0107070602004A
:1020600080808080800080030202060105A0A00518
:1020700007070600005050F850F8505005070706B3
:1020800000002078A07028F020050707060000C097
:10209000C810204098180507070600006090A0406F
:1020A000A89068020303060104C0408003070706E6
:1020B0000100204080808040200307070601008047
:1020C00040202020408005050506000120A870A8BA
:1020D000200505050600012020F820200203030644
:1020E00002FFC04080050101060003F8020202065B
:1020F0000200C0C00505050600010810204080054B
:102100000707060000708898A8C8887003070706AC
:10211000010040C040404040E00507070600007055
:102120008808708080F8050707060000F810201066
:102130000808F005070706000010305090F810104E
:10214000050707060000F880F008088870050707F3
:10215000060000708080F088887005070706000080
:10216000F808102020202005070706000070888846
:10217000708888700507070600007088887808084E
:1021800070020505060200C0C000C0C002060606B7
:1021900002FFC0C000C040800407070600001020F6
:1021A0004080402010050303060002F800F80407F1
:1021B0000706000080402010204080050707060029
:1021C00000708808102000200507070600007088AE
:1021D0000868A8A870050707060000708888F888B6
:1021E0008888050707060000F08888F08888F005D1
:1021F0000707060000708880808088700507070642
:102200000000F08888888888F0050707060000F835
:102210008080F08080F8050707060000F88080F0D5
:10222000808080050707060000708880B888887065
:10223000050707060000888888F88888880107074E
:1022400006020080808080808080050707060000ED
:10225000381010101090600507070600008890A045
:10226000C0A09088050707060000808080808080DD
:10227000F805070706000088D8A888888888050719
:10228000070600008888C8A8988888050707060000
:102290000070888888888870050707060000F08825
:1022A00088F080808005070706000070888888A86D
:1022B0009068050707060000F08888F0A090880560
:1022C0000707060000788080700808F005070706F9
:1022D0000000F820202020202005070706000088A5
:1022E000888888888870050707060000888888889D
:1022F0008850200507070600008888888888A8502D
:1023000005070706000088885020508888050707C1
:102310000600008888885020202005070706000056
:10232000F80810204080F8030707060000E08080CE
:10233000808080E00505050600018040201008032C
:102340000707060000E02020202020E00503030608
:102350000004205088050101060000F80202020670
:10236000020580400505050600007008788878059C
:1023700007070600008080B0C88888F005050506BC
:102380000000708080887005070706000008086854
:10239000988888780505050600007088F880700523
:1023A00007070600003048E04040404005060606AA
:1023B00000FF708888780870050707060000808095
:1023C000B0C88888880107070602008000808080E6
:1023D00080800308080601FF200020202020A04064
:1023E000040707060100808090A0C0A090030707A3
:1023F000060100C04040404040E0050505060000E1
:10240000D0A8A8A8A8050505060000B0C888888837
:102410000505050600007088888870050606060018
:10242000FFF08888F080800506060600FF7888881F
:10243000780808050505060000B0C88080800505FD
:102440000506000070807008F004070706000040D1
:1024500040E0404040300505050600008888889827
:1024600068050505060000888888502005050506D2
:1024700000008888A8A8500505050600008850209F
:1024800050880506060600FF8888887808700505CC
:1024900005060000F8102040F80307070601002099
:1024A0004040804040200107070602008080808075
:1024B0008080800307070601008040402040408064
:1024C000050202060003689000000006000A0000F2
:1024D000000C000A0000000C000A0000000C000ABA
:1024E0000000000C000A0000000C000A0000000CB4
:1024F000000A0000000C000A0000000C000A0000A6
:10250000000C000A0000000C000A0000000C000A89
:102510000000000C000A0000000C000A0000000C83
:10252000000A0000000C000A0000000C000A000075
:10253000000C000A0000000C000A0000000C000A59
:102540000000000C000A0000000C000A0000000C53
:10255000000A0000000C000A0000000C000A000045
:10256000000C000A0000000C000A0000000C000A29
:102570000000000C000A0000000C000A0B0B160CF7
:1025800000FF8FC048404FC00840CFC048004B40BC
:1025900048804E40B0008FE00B0B160C00FF20402F
:1025A000AA4071402040FA4031406840A1E0AE406E
:1025B000204020400B0B160C00FF20002000FDE007
:1025C00025202520252025202520452045E099206F
:1025D0000B0B160C00FF03C0FC0004007FC00400BE
:1025E0000400FFE00400040004001C000B0B160CA8
:1025F00000FF00000000000000000040FFE00000BD
:1026000000000000000000000B0B160C00FF004053
:10261000FFE00400040007000480044004000400FC
:10262000040004000B0B160C00FF240024002FE014
:10263000B400A480A4A0AAC02080288029403240F1
:102640000B0B160C00FF04808FE0490019002FC00F
:10265000090009002FC0490089000FE00B0B160C80
:1026600000FF10003F8051000E003180C0603F80AD
:1026700024803F8024803F800B0B160C00FF2280BB
:10268000FA4007E0FA808A808A80FA802280B2804D
:10269000AAA064E00B0B160C00FF2220474092809A
:1026A000EFE0220047C0EC4007C03440C7C0044000
:1026B0000B0B160C00FF08000FC008000800FFE01D
:1026C00008000E0009800840080008000A0B160CDC
:1026D00000FFFF800080008080808080FF8080007D
:1026E0008000804080407FC00B0B160C00FF47C06D
:1026F0004100EFE0410045006960C9204D6049207C
:102700004FE0C8200B0B160C00FF0800040004006B
:102710000A000A000A0011001100208040408020B9
:102720000B0B160C00FF22402200F7E0220023E0F2
:102730003520E52025402880294072200B0A140C02
:1027400000004440444044407FC004000400842012
:1027500084208420FFE00B0B160C00FF0400000017
:102760007FC00400040004007FC0040004000400D3
:10277000FFE00B0B160C00FFFFE0110001C0FE0094
:10278000488025000400FFE015002480C4600B0B86
:10279000160C00FF11007FC044407FC044407FC042
:1027A0000400FFE0040004000400090B160C00FF05
:1027B0001000FF8080808080FF8080808080FF808C
:1027C00080808080FF800B0B160C00FF71000100E1
:1027D00003E0F9202120412051208920FA20022005
:1027E00004C00B0B160C00FF7FC01100110011007C
:1027F0001100FFE0110011002100210041000B0B2E
:10280000160C00FF21002200F44057E0502057C072
:1028100094405440244057C094400B0B160C00FFCA
:1028200011000A007FC004000400FFE004000A0059
:1028300011002080C0600A0B160C00FF5FC0004032
:1028400084408440BF4084408C409440A4408C40ED
:1028500081C00B0B160C00FF240027C024002400AD
:10286000FFE000001440248047000C0070000B0BB8
:10287000160C00FF248004800FC0E48024803FE019
:1028800024802480288050008FE00B0B160C00FF62
:1028900008000800FF8088808880FF80888088800A
:1028A000FFA0882007E00B0B160C00FF2780248078
:1028B000F480248074806C80A480248024A028A0CC
:1028C00030600A0B160C00FFFFC0804080409E4025
:1028D000924092409E4080408040FFC080400B0B61
:1028E000160C00FF7FC044005FC050405FC05040E6
:1028F0005FC042004A805240A6200B0B160C00FF1E
:10290000040007E004007FC04040404040407FC0DA
:102910000000524089200B0B160C00FF47802480DA
:1029200004800480E86020002FC024402280310011
:1029300026C00B0B160C00FF7FC04A407FC004006E
:10294000FFE004003F80208024802480FFE00B0B08
:10295000160C00FF22004FE048204FE0C8004FE077
:102960004AA05AA06FE04AA048600B0B160C00FF6B
:10297000F3C024402A80F100228065E07220A54047
:10298000208023002C000B0B160C00FF0400FFE03E
:1029900080200000FFE00400240027C02400540031
:1029A0008FE00B0B160C00FF73E01080510023E04A
:1029B000FA202AA022A022A02080214062200B0B16
:1029C000160C00FF2200F78022803680E2A025A0AE
:1029D000246068200000524089200B0B160C00FF79
:1029E00073C0420042007BE04A404A407A404A407D
:1029F0004240444088400B0B160C00FF0800FFE0EB
:102A000008001FC030405FC090401FC01040104001
:102A100010C00B0B160C00FF02007FE042004200CA
:102A20005FC0420047004A805240622082000B0B88
:102A3000160C00FFF3C096409180A660A10097C0DD
:102A400091009500E7E0810081000B0B160C00FF60
:102A50000F8088804F8008808F8040001FC03540E5
:102A6000554095403FE00B0B160C00FF27E02080FF
:102A7000F880208020803880E080208020802080A6
:102A800061800B0B160C00FF1FE0910057C0144033
:102A900017C0944057C011005540992023000B0BDC
:102AA000160C00FF208027E0F240218022403420D5
:102AB000E24022402240224064400B0B160C00FFF3
:102AC000410041004FE0E920492049206FE0C92042
:102AD00049204920CFE00B0B160C00FF2100F1002C
:102AE0004FE0A920F9202FE03920E92029202FE00C
:102AF00028200B0B160C00FF8FE049200920CBA0EB
:102B000049204FE048204BA04AA06BA050E00B0B9F
:102B1000160C00FF7FC004004440244024800400C1
:102B2000FFE004000400040004000B0B160C00FF7F
:102B3000820042001FE0C2005FC052405FC04700F9
:102B40004A805240BFE00B0B160C00FF04007FE0F0
:102B500048807FE048804F8040005FC04840478009
:102B600098600B0B160C00FF0100EFE0A100A440E1
:102B7000AFE0A440AFE0A920E92002800C600B0B7D
:102B8000160C00FF14C0F6A0BC60A780A880BFE0B0
:102B9000A920EFE009200FE009200B0B160C00FF25
:102BA0007F8040804280628054804880488054A06A
:102BB00062A0406080200B0B160C00FF04007FE039
:102BC00040207FE040007DE054204CA0546064A091
:102BD0008D600B0B160C00FF82005FE004000840C4
:102BE0009FE040200A800A804AA092A022600B0B3E
:102BF000160C00FF41004FE0E8204280444068206E
:102C0000C7C0410041004100CFE00B0B160C00FF94
:102C100050207D209120FF2011207D20552055201F
:102C200054205C2010E00B0B160C00FF3F8020802E
:102C30003F802080FFE048007BC0494079404880C9
:102C4000FB600B0B160C00FF040004000400248042
:102C50002440444044208420040004001C000B0B4A
:102C6000160C00FF040004000400FFE004000A004A
:102C70000A00110011002080C060090A140A000037
:102C8000888049000800FF80008000807F800080ED
:102C90000080FF800B0B160C00FF21001200FFE0EC
:102CA000000078804A807A804A807A804880598003
:102CB0000B0B160C00FF27C000000000EFE0210006
:102CC000220024402FE0202050008FE00B0B160C38
:102CD00000FF20802700F90021C077002100F9E0E3
:102CE00027007120A92020E00B0B160C00FF1040DC
:102CF0001040FDE0104038C0354052409440104034
:102D0000104010C00B0B160C00FF0040F8400BE009
:102D1000084088405240514021405040484089C0BE
:102D20000A0B160C00FF840084408480F5008600A6
:102D3000840084009400A440C44083C00B0B160C94
:102D400000FF11207D001100FFE02900FD404940F7
:102D50007C8008A0FD600A200B0B160C00FF17C03A
:102D60002440244067C0A1002FE02100238025409B
:102D7000292021000B0B160C00FF0800FFE01000BB
:102D800027C020806100AFE0210021002100230046
:102D90000B0B160C00FF24002FE0B400A480A4A0AD
:102DA000AAC02A8028802940324024200B0B160C10
:102DB00000FF7FE080003FC020403FC010001FC0E8
:102DC00010402880470038E00B0B160C00FF7FE016
:102DD00040004000400040004000400040004000F3
:102DE000400080000B0B160C00FFFFE004007FC0CA
:102DF00044407FC044407FC0440024001800E7E006
:102E00000B0B160C00FF11E0FD00450029E0FD4012
:102E100011407D4011405540924034400B0B160C40
:102E200000FF21005FE04000CFC040004FC04000E5
:102E30004FC048404FC048400B0B160C00FF040029
:102E40007FC040407FC040407FC040407FC00440C2
:102E50005220BFA00B0B160C00FF7FC044407FC068
:102E600044407FC004001B00E0E01100110061003D
:102E70000B0B160C00FFFFE0040008007FE0492068
:102E80004F2049204F20492049207FE00B0B160C92
:102E900000FFFDE056407940388055409220FFE029
:102EA000040027C02400FFE00B0B160C00FFFB8082
:102EB00052007BE01240FA4014403F8020803F8067
:102EC00020803F800B0B160C00FF1FE0200027C066
:102ED0006440A7C020002FE0282027C02100230045
:102EE0000B0B160C00FFF3E082208220FA208220D8
:102EF00082208A20B220C2E0020002000B0B160CD6
:102F000000FF248046A095C0E48027E04480F5C0FF
:102F100006A03480C48007E00B0B160C00FF27C00E
:102F2000410087E0E02022804580F2800FE0308081
:102F3000C14002200B0B160C00FF02000200220011
:102F400023C0220022002200220022002200FFE0F3
:102F5000090B160C00FF03E04000BF403FC02040BB
:102F60003FC010003FC050800F0070E00B0B160CEC
:102F700000FF04004440444044407FC0040004007B
:102F8000842084208420FFE00B0B160C00FF7FC000
:102F9000040004000400FFE00A000A0012002220DE
:102FA000422081E00B0B160C00FF00007FE0400088
:102FB0004000400040004000400040004000400011
:102FC0000B0B160C00FF4780248004800480E8600F
:102FD00020002FC024402280310022800B0B160CD1
:102FE00000FF7FC04A407FC00400FFE004003F8034
:102FF000208020802480FFE00B0B160C00FF0400D3
:10300000040004007FC04440444044407FC044402A
:10301000040004000B0B160C00FF08000400FFE086
:1030200020802080110011000A0004000A0071C0F5
:103030000B0B160C00FF140027E02A006200A3C04F
:103040002200220023E022002200220000000000D3
:103050000000000000000000000000000000000070
:103060000000000000000000000000000000000060
:103070000000000000000000000000000000000050
:103080000000000000000000000000000000000040
:103430000000000000060900FE070192032120FFA2
:10344000FF08FF07FF000000060000010707060253
:103450000080808080800080030202060105A0A019
:103460000507070600005050F850F85050050707B0
:103470000600002078A07028F0200507070600004D
:10348000C0C810204098180507070600006090A0EB
:1034900040A89068020303060104C04080030707A8
:1034A00006010020408080804020030707060100BD
:1034B0008040202020408005050506000120A870DE
:1034C000A8200505050600012020F820200203039E
:1034D0000602FFC04080050101060003F802020257
:1034E000060200C0C0050505060001081020408046
:1034F000050707060000708888888888700307071A
:1035000006010040C040404040E0050707060000BB
:10351000708808708080F8050707060000F8102002
:10352000100808F005070706000010305090F8104A
:1035300010050707060000F880F0080888700507E6
:1035400007060000708080F0888870050707060075
:1035500000F80810202020200507070600007088CA
:1035600088708888700507070600007088887808CA
:103570000870020505060200C0C000C0C0020606B1
:103580000602FFC0C000C04080040707060000100C
:10359000204080402010050303060002F800F804D4
:1035A000070706010080402010204080050707061D
:1035B0000000708808102000200507070600007032
:1035C000880868A8A870050707060000708888F8B2
:1035D000888888050707060000F08888F08888F04A
:1035E000050707060000708880808088700507073F
:1035F000060000F08888888888F005070706000024
:10360000F88080F08080F8050707060000F88080C9
:10361000F0808080050707060000708880B88888E1
:1036200070050707060000888888F88888880107E1
:1036300007060200808080808080800507070600E2
:1036400000381010101090600507070600008890E1
:10365000A0C0A090880507070600008080808080B9
:1036600080F805070706000088D8A888888888059C
:1036700007070600008888C8A898888805070706F5
:10368000000070888888888870050707060000F0A9
:103690008888F08080800507070600007088888889
:1036A000A89068050707060000F08888F0A09088B9
:1036B000050707060000788080700808F0050707F6
:1036C000060000F820202020202005070706000023
:1036D0008888888888887005070706000088888899
:1036E000888850200507070600008888888888A8F1
:1036F0005005070706000088885020508888050775
:10370000070600008888885020202005070706004B
:1037100000F80810204080F8030707060100E08049
:1037200080808080E00505050600018040201008AB
:10373000030707060100E02020202020E005030306
:10374000060004205088050101060000F80202026C
:103750000602058040050505060000700878887897
:103760000507070600008080B0C88888F0050505B9
:1037700006000070808088700507070600000808B2
:1037800068988888780505050600007088F88070BC
:103790000507070600003048E040404040050606A7
:1037A0000600FF708888780870050707060000800B
:1037B00080B0C888888801070706020080008080E2
:1037C0008080800308080601FF200020202020A020
:1037D00040040707060000808090A0C0A090030767
:1037E00007060100C04040404040E00505050600D6
:1037F00000D0A8A8A8A8050505060000B0C88888BC
:10380000880505050600007088888870050606068C
:1038100000FFF08888F080800506060600FF7888A3
:1038200088780808050505060000B0C88080800576
:10383000050506000070807008F004070706000008
:103840004040E0404040300505050600008888887B
:10385000986805050506000088888850200505053C
:103860000600008888A8A8500505050600008850B5
:103870002050880506060600FF88888878087005AD
:103880000505060000F8102040F8030707060100B0
:1038900020404080404020010707060200808080D1
:1038A0008080808003070706010080404020404060
:1038B0008005020206000268900000000600000079
:1038C00000000600000000000600000000000600E6
:1038D00000000000060000000000060000000000DC
:1038E00006000000000006000000000006000000C6
:1038F00000000600000000000600000000000600B6
:1039000000000000060000000000060000000000AB
:103910000600000000000600000000000600000095
:103920000000060000000000060000000000060085
:10393000000000000600000000000600000000007B
:103940000600000000000600000000000600000065
:103950000000060000000000060000000000060055
:10396000000000000600000000000600000000004B
:103970000600000000000600000000000600000035
:10398000000006000001070706020080008080801A
:1039900080800507070600002070A8A0A8702005F9
:1039A0000707060000304040E04050A80505050626
:1039B00000008870507088050707060000885020B6
:1039C000F820F82001070706020080808000808030
:1039D0008005080806000030482050502090600301
:1039E0000101060107A0050707060000F888B8B81E
:1039F000B888F8050707060001700878887800F88D
:103A00000505050600012850A050280503030600FF
:103A100001F80808020202060206408005070706B0
:103A20000000F888A88898A8F8050101060006F8A3
:103A30000404040600036090906005070706000078
:103A40002020F8202000F8040505060003609020DF
:103A500040F0030505060003E020E020E00202023A
:103A600006020640800508080600FF8888888898B6
:103A7000E8808005070706000078989878181818DD
:103A8000020202060202C0C00202020602FF4080D9
:103A900003050506000340C04040E0050707060097
:103AA00001708888887000F8050505060001A0509F
:103AB0002850A00507070600008890A858B80808F5
:103AC0000507070600008890B848982038050808C0
:103AD000060000C040C048D838080805070706009F
:103AE0000020002040808870050808060000402063
:103AF000007088F88888050808060000102000700B
:103B000088F888880508080600002050007088F8AA
:103B100088880508080600006890007088F8888882
:103B20000508080600005000708888F88888050895
:103B3000080600002050207088F8888805070706CE
:103B400000003860A0B8E0A0B80508080600FF70C3
:103B500088808088702060050808060000402000EA
:103B6000F880F080F8050808060000081000F880CA
:103B7000F080F8050808060000205000F880F0806A
:103B8000F80507070600005000F880F080F80308E9
:103B900008060100804000E0404040E003080806BD
:103BA0000100204000E0404040E00308080601001A
:103BB00040A000E0404040E0030707060100A000ED
:103BC000E0404040E0050707060000704848E8482C
:103BD000487005080806000068900088C8A8988802
:103BE000050808060000402070888888887005084D
:103BF000080600001020708888888870050808066C
:103C000000002050007088888870050808060000B1
:103C100068900070888888700508080600005000C9
:103C20007088888888700505050600018850205036
:103C3000880508080600FF1070A8A8A8A87040050D
:103C400008080600004020888888888870050808D1
:103C500006000010208888888888700508080600FB
:103C600000205000888888887005080806000050E9
:103C70000088888888887005080806000010208859
:103C800050202020200509090600FFC04070484848
:103C9000704040E00408080601FF609090A09090FA
:103CA000E080050808060000402000700878887849
:103CB00005080806000010200070087888780508BC
:103CC000080600002050007008788878050808066B
:103CD00000006890007008788878050707060000E3
:103CE00050007008788878050808060000205020E9
:103CF0007008788878050606060000D02878A0A805
:103D0000500506060600FF708088702060050808D0
:103D10000600004020007088F88070050808060042
:103D2000001020007088F880700508080600002048
:103D300050007088F880700507070600005000707A
:103D400088F8807003080806010080400040C040E9
:103D500040E003080806010020400040C04040E069
:103D600003080806010040A00040C04040E00307EF
:103D700007060100A00040C04040E005070706001C
:103D800000A040A010788870050808060000689020
:103D900000B0C88888880508080600004020007028
:103DA0008888887005080806000010200070888840
:103DB0008870050808060000205000708888887008
:103DC000050808060000689000708888887005075C
:103DD00007060000500070888888700505050600F9
:103DE000012000F800200507070600FF1070A8A8B2
:103DF000A8704005080806000040200088888898C0
:103E00006805080806000010200088888898680562
:103E10000808060000205000888888986805070771
:103E2000060000500088888898680509090600FF88
:103E3000102000888888F808700407070601FFC072
:103E40004060506040E00508080600FF5000888888
:103E500088780870000000000000000000000000EA
:103E60000000000000000000000000000000000052
:103E700000000010080800000004280000000000F6
:103E800000100808F80000042400000000000028CA
:103E90000808883FFE082000000000000024487E3B
:103EA000880000097F800000000000424808F800F8
:103EB0000011440000000000008148188800003E06
:103EC000C40000000000017C481CF80000057F00D1
:103ED000000000000044482A881FFC08440000003D
:103EE0000000004448488800001044000000000022
:103EF00000444808F800003F7F0000000000005424
:103F0000480100000010440000000000004848087C
:103F100084000000440000000000004108489200B6
:103F2000000744000000000000410848127FFF38ED
:103F30007F8000000000003F2887F0000010400054
:103F40000000000000001000000000004000000021
:103F50000000000000000000000000000000000061
:103F60000000000000000000000000000000000051
:103F70000000000000000000000000000000000041
:103F80000000000000000000000000000000000031
:103F9000000000000000003E00000007018000005B
:103FA000003C7E00004200000001018080000042D1
:103FB000210000420000000100008000004220803B
:103FC00000800000000100008000000420800080CC
:103FD000EE1E0F010383E1DC0018208000803221F7
:103FE000108100808088000420800080203F0781AD
:103FF00000808090000220800080202008810080C6
:10400000805000022080008220201081008080509B
:104010000042208000442021108100809020004236
:1040200021000038F81E0FC7C3E0E020003C7E00EE
:104030000000000000000000004000000000000040
:1040400000000000000001800000000000000000EF
:104050000000000000000000000000000000000060
:104060000000000000000000FFE0FFD11000FFFE94
:10407000FFD0FFE0FFC1FFD1E240A0C8A6A22FF809
:1040800000238127AC00AFFF64A5FF64FF64A4FF99
:10409000D0FFFE004730205A2573004D31303920C3
:1040A000532569004D31343020532569004D31309E
:1040B000362053323535004D3130392053256900D3
:1040C0004D31393020532569005072696E7420617A
:1040D000626F7274656400526573756D65207072ED
:1040E000696E743F00F4F5CAF33F00526573756D55
:1040F00065207072696E743F00596573005965736D
:1041000000596573004E6F004E6F004E6F00526590
:1041100073657420424C546F756368005265736513
:104120007420424C546F7563680052657365742047
:10413000424C546F75636800424C546F756368203D
:1041400053656C662D5465737400424C546F7563EF
:10415000682053656C662D5465737400424C546F2F
:104160007563682053656C662D54657374004465EF
:10417000706C6F7920424C546F75636800446570B1
:104180006C6F7920424C546F756368004465706CA5
:104190006F7920424C546F7563680053746F7720B9
:1041A000424C546F7563680053746F7720424C54CF
:1041B0006F7563680053746F7720424C546F75635A
:1041C00068004D32383020503020533930004D32A5
:1041D000383020503020533130004D3238302050AC
:1041E000302053313230004D32383020503020539F
:1041F00031363000496E666F2073637265656E00FC
:10420000ECEDEEEF00496E666F2073637265656ECC
:104210000054756E6500CFF00054756E65004C61FA
:104220006E6775616765004C616E677561676500F3
:104230004C616E67756167650050617573652070CC
:1042400072696E7400F1F2CAF300506175736520F3
:104250007072696E7400526573756D652070726955
:104260006E7400F4F5CAF300526573756D652070C5
:1042700072696E740053746F70207072696E74008E
:10428000F2F6CAF30053746F70207072696E740096
:104290005072696E742066726F6D20544600AFB024
:1042A000005072696E742066726F6D205446004E25
:1042B0006F205446206361726400F9A8004E6F209D
:1042C00054462063617264004730204633363030F4
:1042D000205831313720593131370042696C696ECD
:1042E000656172204C6576656C696E6720477269FE
:1042F000643A0A0020706F736974696F6E206F757D
:1043000074206F662072616E67652E0A003F5072DE
:104310006F62652000486F6D6520257325732573D6
:10432000206669727374002066697273740A005A99
:104330000059005800486F6D65200052756E6E6917
:104340006E6720696E204452592D52554E206D6F74
:1043500064650A00473239204175746F20426564F4
:10436000204C6576656C696E670A00284229616396
:104370006B00284629726F6E74002852296967689D
:104380007400284C29656674003F285629657262BE
:104390006F7365206C6576656C20697320696D703C
:1043A0006C61757369626C652028302D34292E0A82
:1043B00000426164205A2076616C75650A004E6F78
:1043C0002062696C696E65617220677269640A00B7
:1043D000205A3A200020593A200042656420583A79
:1043E0002000456E676C69736800456E676C697381
:1043F0006800456E676C697368004368696E657331
:1044000065004368696E657365004368696E65732E
:1044100065005072656865617420504C4120636F7F
:104420006E66005072656865617420504C4120BE14
:10443000BF005072656865617420504C4120636F05
:104440006E66005072656865617420414253206356
:104450006F6E66005072656865617420414253203A
:10446000BEBF00507265686561742041425320638D
:104470006F6E660054656D7065726174757265006B
:10448000C9D20054656D70657261747572650053B0
:10449000746F72652073657474696E67730053740A
:1044A0006F7265206D656D6F72790053746F726500
:1044B0002073657474696E677300566D6178205857
:1044C00000566D6178205800566D6178205800566E
:1044D0006D6178205900566D6178205900566D61E4
:1044E00078205900566D6178205A00566D61782009
:1044F0005A00566D6178205A00566D61782045004B
:10450000566D6178204500566D6178204500566DE6
:10451000696E00566D696E00566D696E0056547274
:104520006176206D696E005654726176206D696EF9
:10453000005654726176206D696E00486172646342
:104540006F6465642044656661756C74205365749E
:1045500074696E6773204C6F616465640A00F401CE
:104560000000F401000064000000E8030000000007
:104570007A4300007A430000A0400000C8410000D8
:10458000A0420000A0420000C843AE47B94220202C
:104590004D383531205A005A2D50726F6265204FC8
:1045A000666673657420286D6D293A0A0020440000
:1045B00020490020204D3330312050005049442004
:1045C00073657474696E67733A0A0020460020426E
:1045D0000020480020204D3134352053004D6174B7
:1045E000657269616C2068656174757020706172B4
:1045F000616D65746572733A0A00205A0020204D7F
:104600003432302053004175746F20426564204C71
:104610006576656C696E673A0A00205A0020590079
:1046200020204D323036205800486F6D65206F666F
:10463000667365743A0A00204500205A002059002C
:1046400020580020420020540020204D32303520D8
:104650005300416476616E6365643A20533C6D6932
:104660006E5F66656564726174653E20543C6D6979
:104670006E5F74726176656C5F66656564726174A5
:10468000653E20423C6D696E5F7365676D656E7453
:104690005F74696D655F6D733E20583C6D61785F36
:1046A00078795F6A65726B3E205A3C6D61785F7AFB
:1046B0005F6A65726B3E20453C6D61785F655F6A3D
:1046C00065726B3E0A0020540020520020204D32BB
:1046D0003034205000416363656C65726174696FAA
:1046E0006E2028756E6974732F7332293A20503CFE
:1046F0007072696E745F616363656C3E20523C72D8
:104700006574726163745F616363656C3E20543CE1
:1047100074726176656C5F616363656C3E0A00204C
:104720004500205A0020590020204D3230312058B9
:10473000004D6178696D756D20416363656C6572CC
:104740006174696F6E2028756E6974732F733229D6
:104750003A0A00204500205A0020590020204D32FE
:1047600030332058004D6178696D756D2066656540
:104770006472617465732028756E6974732F732970
:104780003A0A00204500205A0020590020204D39C7
:104790003220580053746570732070657220756EF6
:1047A00069743A0A0020204D3230302044300A002B
:1047B00020204D3230302044002044697361626C07
:1047C00065640A0046696C616D656E74207365747A
:1047D00074696E67733A0020204D313439204320CC
:1047E0003B20556E69747320696E2043656C736954
:1047F00075730A002020473231202020203B2055AD
:104800006E69747320696E206D6D0A005265736560
:104810006E643A20006F6B0020746F6F206C6F6EB7
:104820006720657874727573696F6E207072657633
:10483000656E7465640A0020636F6C64206578742B
:10484000727573696F6E2070726576656E746564DB
:104850000A00627573793A20706175736564206629
:104860006F7220696E7075740A00627573793A20F0
:1048700070617573656420666F7220757365720A66
:1048800000627573793A2070726F63657373696E35
:10489000670A004B494C4C45442E20004B494C4C78
:1048A00020636175736564206279204B494C4C200C
:1048B000627574746F6E2F70696E0A004B494C4CB0
:1048C00045442E20004B494C4C2063617573656450
:1048D00020627920746F6F206D75636820696E6146
:1048E00063746976652074696D65202D2063757227
:1048F00072656E7420636F6D6D616E643A200000A6
:10490000002100240027002A002D00300033000180
:10491000010000040107010A01000022002500280F
:10492000002B002E003100340002010000050108B8
:10493000010B014361726420696E73657274656472
:1049400000A8A9AAAB004361726420696E73657206
:1049500074656400436172642072656D6F7665648E
:1049600000A8A9ACAD00436172642072656D6F76DA
:104970006564004D6F76696E672E2E2E0070012CD7
:104980000190012701B0012201C0011D01F00118B1
:10499000011002130130020E0160020901900204AD
:1049A00001C002FF000003FA004003F5008003F09D
:1049B00000D003EB002004E6007004E100E004DC1A
:1049C000004005D700C005D2004006CD00D006C883
:1049D000008007C3003008BE00F008B900C009B469
:1049E00000B00AAF00B00BAA00D00CA500000EA0CA
:1049F00000500F9B00C01096005012910000148CC4
:104A000000C0158700B0178200B0197D00D01B7858
:104A100000001E730040206E0090226900F02464A4
:104A20000040275F0090295A00E02B5500102E50BF
:104A30000020304B0010324600E033410090353CFE
:104A4000001037370070383200A0392D00B03A28F6
:104A500000A03B2300603C1E00103D1900903D1457
:104A600000103E0F00703E0A00C03E0500003F00EF
:104A700000403FFBFF803FF6FFC03FF1FF54484539
:104A8000524D414C2052554E415741590054686592
:104A9000726D616C2052756E61776179004572723A
:104AA0003A204D494E54454D5020424544004572F0
:104AB000723A204D494E54454D50004572723A208D
:104AC0004D494E54454D50004D494E54454D502092
:104AD000747269676765726564004572723A204D49
:104AE000415854454D5020424544004572723A2089
:104AF0004D415854454D50004572723A204D415831
:104B000054454D50004D415854454D5020747269E4
:104B1000676765726564004D61696E00AEAFB00095
:104B20004D61696E004D6F7665205800C1B2205806
:104B3000004D6F76652058004D6F7665205900C195
:104B4000B22059004D6F76652059004D6F76652073
:104B50005A00C1B2205A004D6F7665205A00457840
:104B600074727564657200CCADBA00457874727564
:104B7000646572004E6F7A7A6C6500D3D4004E6F14
:104B80007A7A6C650042656400C4C70042656400BF
:104B900046616E20737065656400D5D6D1D200463B
:104BA000616E20737065656400436F6E74726F6C24
:104BB00000D8D900436F6E74726F6C004D6F7469CA
:104BC0006F6E00DFB2004D6F74696F6E00507265DA
:104BD0007061726500A4A500507265706172650015
:104BE00000060900FE000000000001090008FE00A8
:104BF0000005080806000040F0C88888987810056D
:104C00000808060000C0F88888888888F805050527
:104C10000600012030F8302005080806000020704A
:104C2000F820202020E00509090600FF2070A8A830
:104C3000B8888870200509090600FFE080C0B0A888
:104C4000283028280509090600FFF8A888888888E0
:104C500088A8F8050A0A0600FE205050505088A87F
:104C6000A8887003030306000340A0404D6F7665DB
:104C7000206178697300C1B2CE004D6F7665206106
:104C8000786973004D6F76652031306D6D00C1B26B
:104C90002031306D6D004D6F76652031306D6D00C7
:104CA0004D6F766520316D6D00C1B220316D6D00A4
:104CB0004D6F766520316D6D004D6F766520302E1D
:104CC000316D6D00C1B220302E316D6D004D6F76AB
:104CD0006520302E316D6D0046696C616D656E74B6
:104CE00000E0E10046696C616D656E7400424C54F1
:104CF0006F75636800424C546F75636800424C5492
:104D00006F756368004C6F61642073657474696EBD
:104D10006773004C6F6164206D656D6F7279004C34
:104D20006F61642073657474696E677300496E699E
:104D30007469616C697A6520454550524F4D00A3F6
:104D4000F7F8FAFBFC00496E697469616C697A6571
:104D500020454550524F4D005A2070726F626520B9
:104D60006F75742E206265640A005A2070726F623B
:104D700065206F75742E2062656400473238205AB2
:104D800020466F7262696464656E0A00473238209B
:104D90005A20466F7262696464656E0050726F6279
:104DA000696E67206661696C65640A0050726F62A3
:104DB000696E67206661696C656400205A3A20005C
:104DC00020593A200042656420583A20002E0A00FB
:104DD00046696C652862696E292064656C65746536
:104DE000640044656C6574696F6E2862696E292081
:104DF0006661696C65640053442063617264206F6E
:104E00006B0A006F70656E526F6F74206661696C1B
:104E100065640A00766F6C756D652E696E69742025
:104E20006661696C65640A00534420696E69742088
:104E30006661696C0A006175746F25692E67004DA3
:104E40003234004D32332025730057726974696E15
:104E50006720746F2066696C653A20006F70656E1C
:104E6000206661696C65642C2046696C653A200097
:104E70006F70656E206661696C65642C2046696C94
:104E8000653A200046696C652073656C65637465DE
:104E9000640A002053697A653A200046696C6520EF
:104EA0006F70656E65643A20006F70656E20666194
:104EB000696C65642C2046696C653A20002066693F
:104EC0006C653A20004E6F7720002220706F7300CF
:104ED0002220706172656E743A2200535542524F1F
:104EE0005554494E452043414C4C207461726765CE
:104EF000743A22004B494C4C45442E200074727980
:104F0000696E6720746F2063616C6C207375622D0D
:104F100067636F64652066696C6573207769746880
:104F200020746F6F206D616E79206C6576656C738F
:104F30002E204D4158206C6576656C2069733A00CF
:104F40004572726F723A004572723A204D494E5462
:104F5000454D50004572723A204D415854454D50D0
:104F6000004572723A204D494E54454D50004572ED
:104F7000723A204D415854454D50006265640A0014
:104F80002C2073797374656D2073746F7070656411
:104F900021204865617465725F49443A2000486584
:104FA0006174696E67206661696C6564004865615B
:104FB00074696E67206661696C6564004865617438
:104FC000696E67206661696C656400486561746933
:104FD0006E67206661696C656400C300C5001124BA
:104FE0001FBECFEFD1E2DEBFCDBF00E00CBF14E0AB
:104FF000A0E0B2E0E6E9FAE302E00BBF02C00790EE
:105000000D92AC3DB107D9F72BE1ACEDB4E001C096
:105010001D92A83CB207E1F717E2CEEED7E200E01E
:1050200006C021970109802FFE010F94B41CCD3ECC
:10503000D10780E00807A9F70F9410000D943A1DDE
:105040000C9400002F923F924F925F926F927F924A
:105050008F929F92AF92BF92CF92DF92EF92FF9288
:105060000F931F93CF93DF93CDB7DEB7CD57D10901
:105070000FB6F894DEBF0FBECDBF00914B0720E600
:10508000029F8001112405531A4F8091CF0A80FF9F
:105090001AC0E8E3F3E184917F013FEFE31AF30ADA
:1050A000811102C0780104C00E944049F701F3CF8A
:1050B000D7018D917D01882319F00E944049F8CFD6
:1050C0008AE00E94404981E090E09093ED15809342
:1050D000EC151092FB041092FA048FE380931005F4
:1050E00010920F0510920E051092F6041092F7041C
:1050F0001092F8041092F904F80180810F5F1F4F9D
:105100008032D1F38E34B1F4818190ED980F9A30D2
:1051100020F08D3211F08B3269F43296DF01319636
:105120002C9120532A30D0F3CD01FC01019620812F
:105130002032D9F3F093F415E093F3157F01BFEF1C
:10514000EB1AFB0A10816AE270E0C7010F94021D9E
:10515000009731F0FC01319780818032E1F31182B8
:105160001D3429F0143519F0173409F0CBC0F701BC
:1051700080812FEFE21AF20A8032C9F380538A301D
:1051800008F0C0C01093100520910E0530910F0556
:105190004AE03196429FC001439F900D1124DF01E8
:1051A00011972C91022E000C330B20533109280F3C
:1051B000391F808180538A3060F330930F0520932C
:1051C0000E05DF0131968C918032D9F31D34D1F474
:1051D0002E31310591F03CF42731310571F02C313D
:1051E000310581F40AC02537310564F027373105D0
:1051F00024F0203A43E0340729F4B093FB04A09351
:10520000FA0480C01092FB041092FA040091F31586
:1052100061E070E0FD0131968C91882309F472C041
:105220008132A1F41D3491F42032310579F4F093E8
:10523000FB04E093FA0463E270E0CF010F94021DD7
:10524000009709F45FC0DC011C925CC09FEBD92E73
:10525000D80E49E1C42ECD14C0F1AF01FA019081FE
:105260004F5F5F4F9032D1F340ED490F4A3040F02D
:1052700043ED490F423020F09B3211F00C94C140B5
:10528000AF01AD2CB12C7501A3E0F594E794AA957C
:10529000E1F7C7018A509B4F7C018D2D8770DB01A0
:1052A00002C0AA0FBB1F8A95E2F7CD01D7019C91DE
:1052B000892B8C934115510511F0401B01C040E032
:1052C000D501A452BB4F4C930AC08091FA0490912F
:1052D000FB04892B21F4B093FB04A093FA04808192
:1052E00081548A3110F4DF0195CFDF0131969C9112
:1052F00090539A30D0F3CD01FC01019640814032A9
:10530000D9F3F1CF809110058D3409F40BC68435A3
:1053100011F40C945E40873411F00C94A0408091FD
:105320000E0590910F058C31910509F4E3C57CF4CD
:10533000843091053CF482309105BCF597FF29C07B
:105340000C94BA40049709F48FC50C94BA408A3281
:10535000910509F4E3C564F48D31910509F4D1C5D3
:105360004E9711F00C94BA400E94E9B80C94BA40E0
:105370008B35910509F4C9C58C35910509F4CAC569
:105380008A35910511F00C94BA4010920D050C94D9
:10539000BA408091AB02882311F40C94BA400E9469
:1053A000E8B90E94B8D60C94BA402091AB022223EF
:1053B00011F40C94BA4011E0029709F010E00E9439
:1053C000E8B982E50E94EB48882309F43CC10E94B9
:1053D00089486B017C014090C9165090CA166090B4
:1053E000CB167090CC162091CD163091CE164091F0
:1053F000CF165091D0162DA73EA74FA758AB80913E
:10540000B8169091B916A091BA16B091BB1689AB97
:105410009AABABABBCAB2091BC163091BD164091A2
:10542000BE165091BF1629AF3AAF4BAF5CAF20E02C
:1054300030E0A901C701B6010F941613882309F4BF
:10544000F9C4A301920169A97AA98BA99CA90F9417
:10545000161381110DC02DA53EA54FA558A969AD04
:105460007AAD8BAD9CAD0F941613882309F4E2C47A
:1054700020E030E0A901C701B6010F941613881F80
:105480008827881F18130BC080E090E0A0E8BFE3D6
:1054900029968CAF9DAFAEAFBFAF29970AC020E071
:1054A00030E040E85FEB29962CAF3DAF4EAF5FAFE9
:1054B0002997A301920169A97AA98BA99CA90F94A4
:1054C000B31921966CAF7DAF8EAF9FAF21972DA5FD
:1054D0003EA54FA558A969AD7AAD8BAD9CAD0F9493
:1054E000B31925966CAF7DAF8EAF9FAF25972196F0
:1054F0002CAD3DAD4EAD5FAD2197CA01B9010F9402
:105500007B134B015C0125962CAD3DAD4EAD5FADDF
:105510002597CA01B9010F947B139B01AC01C5010A
:10552000B4010F94B4190F94201C6DAB7EAB8FABFC
:1055300098AF20E030E040E05FE30F947B134B0135
:105540005C01A7019601C701B6010F947B136B01A3
:105550007C01A5019401C501B4010F947B139B014B
:10556000AC01C701B6010F94B3190F94201C9B0125
:10557000AC0129966CAD7DAD8EAD9FAD29970F9492
:105580007B134B015C0129A93AA94BA95CA9C30172
:10559000B2010F94B41920E030E040E05FE30F94D3
:1055A0007B136B017C0125966CAD7DAD8EAD9FADFF
:1055B000259790582DA93EA94FA958AD0F94901A40
:1055C0009B01AC01C501B4010F947B139B01AC019D
:1055D000C701B6010F94B419A30192010F94B31936
:1055E0006B017C0129AD3AAD4BAD5CAD6DA57EA5DF
:1055F0008FA598A90F94B41920E030E040E05FE354
:105600000F947B132B013C012DA93EA94FA958AD46
:1056100021966CAD7DAD8EAD9FAD21970F94901A04
:105620009B01AC01C501B4010F947B139B01AC013C
:10563000C301B2010F94B4192DA53EA54FA558A9D9
:105640000F94B31914C089E40E94EB48882329F011
:105650000E9489486B017C0103C0C12CD12C7601CA
:105660008AE40E94EB488823D9F00E94894869AFF8
:105670007AAF8BAF9CAF20E030E0A901C701B60143
:105680000F94161381111AC020E030E0A90169AD12
:105690007AAD8BAD9CAD0F94161381110FC0CAC3A8
:1056A00020E030E0A901C701B6010F94161388234A
:1056B00009F4C0C319AE1AAE1BAE1CAED701C601A9
:1056C000B0588DA79EA7AFA7B8AB29AD3AAD4BADEB
:1056D0005CAD505829AB3AAB4BAB5CAB9C01AD0118
:1056E000BC01CD010F947B134B015C0129A93AA9A0
:1056F0004BA95CA9CA01B9010F947B139B01AC01B2
:10570000C501B4010F94B4190F94201C69966CAFB5
:105710007DAF8EAF9FAF69978091C9169091CA16E1
:10572000A091CB16B091CC168DAB9EABAFABB8AF02
:10573000A7019601BC01CD010F94B41929966CAF55
:105740007DAF8EAF9FAF29972091CD163091CE16A9
:105750004091CF165091D01621962CAF3DAF4EAF51
:105760005FAF219729AD3AAD4BAD5CAD21966CADE5
:105770007DAD8EAD9FAD21970F94B4192D966CAF72
:105780007DAF8EAF9FAF2D978091B8169091B916CF
:10579000A091BA16B091BB1661968CAF9DAFAEAF1B
:1057A000BFAF619729962CAD3DAD4EAD5FAD29974A
:1057B000BC01CD010F94B3196B017C012091BC1683
:1057C0003091BD164091BE165091BF1665962CAF14
:1057D0003DAF4EAF5FAF65972D962CAD3DAD4EAD55
:1057E0005FAD2D9765966CAD7DAD8EAD9FAD659728
:1057F0000F94B3194B015C018091D1169091D21690
:10580000A091D316B091D416A1968CAF9DAFAEAF38
:10581000BFAFA1979C01AD016091C0167091C116F8
:105820008091C2169091C3160F94B31925966CAF50
:105830007DAF8EAF9FAF25972091C4163091C516CE
:105840004091C6165091C7166D962CAF3DAF4EAF26
:105850005FAF6D978091D5169091D616A091D7160F
:10586000B091D816A5968CAF9DAFAEAFBFAFA59740
:10587000A70196016DA57EA58FA598A90F947B130E
:105880002B013C01A501940169A97AA98BA99CA9C6
:105890000F947B139B01AC01C301B2010F94B419A7
:1058A0002B013C01A50194016DA57EA58FA598A9AA
:1058B0000F947B134B015C01A701960169A97AA99A
:1058C0008BA99CA90F947B139B01AC01C501B4016A
:1058D0000F94B319A30192010F94271A6B017C0155
:1058E00020E030E0A9010F94161387FF0AC02BEDCA
:1058F0003FE049EC50E4C701B6010F94B4196B01C5
:105900007C01112351F02BED3FE049EC50E4C7013D
:10591000B6010F94B3196B017C0120E030E0A901BE
:10592000C701B6010F941613811126C061962CADE4
:105930003DAD4EAD5FAD61976DA97EA98FA998ADC4
:105940000F941613811118C065962CAD3DAD4EAD68
:105950005FAD659721966CAD7DAD8EAD9FAD219706
:105960000F941613811108C09BEDC92E9FE0D92E0C
:1059700099ECE92E90E4F92E69962CAD3DAD4EAD33
:105980005FAD6997C701B6010F947B139B01AC0112
:105990000F947B134B015C0125962CAD3DAD4EADB4
:1059A0005FAD2597CA01B9010F947B139B01AC0130
:1059B000C501B4010F94B4190F94201C4B015C0174
:1059C0002FE632E143E85AE30F94161387FD2EC207
:1059D000C501B4010F94291B0F94FD1A7EAF6DAF62
:1059E000DB01AB2B21F4E1E0F0E0FEAFEDAF2DAD3C
:1059F0003EADB90180E090E00F941A134B015C01B9
:105A00009B01AC01C701B6010F94901A6DAB7EAB40
:105A10008FAB98AFA501940125966CAD7DAD8EAD91
:105A20009FAD25970F94901A69966CAF7DAF8EAF9E
:105A30009FAF6997A5962CAD3DAD4EAD5FADA597D7
:105A40006D966CAD7DAD8EAD9FAD6D970F94B31916
:105A5000A50194010F94901A6D966CAF7DAF8EAF37
:105A60009FAF6D972DA93EA94FA958ADCA01B901A5
:105A70000F947B1320E030E040E05FE30F947B1352
:105A80009B01AC0160E070E080E89FE30F94B319E4
:105A900025966CAF7DAF8EAF9FAF2597A1968CAD4D
:105AA0009DADAEADBFADA19789879A87AB87BC8707
:105AB000A5962CAD3DAD4EAD5FADA5972D873E872C
:105AC0004F87588B6091080270910902072E000CD5
:105AD000880B990B0F941C132091A2023091A30202
:105AE0004091A4025091A5020F947B132AE037ED58
:105AF00043E25CE30F947B1361966CAF7DAF8EAF96
:105B00009FAF61970E942DDA9B01AC0128533F4F54
:105B10004F4F5F4F65962CAF3DAF4EAF5FAF659770
:105B20004DA45EA46FA478A822242394312C89E18B
:105B3000D82E4DAD5EAD2416350609F433C10E9452
:105B400063FE0E942DDADC01CB0165962CAD3DADE4
:105B50004EAD5FAD6597821B930BA40BB50BB7FDE4
:105B600010C00E942DDA9B01AC0128533F4F4F4FCC
:105B70005F4F65962CAF3DAF4EAF5FAF65970E940C
:105B800053D1DA94DD2009F441C025962CAD3DAD0A
:105B90004EAD5FAD259769A97AA98BA99CA90F94F1
:105BA0007B134B015C012DA93EA94FA958ADB20151
:105BB000C3010F947B13A50194010F94B4197B01C9
:105BC0008C0125962CAD3DAD4EAD5FAD2597B20154
:105BD000C3010F947B134B015C012DA93EA94FA972
:105BE00058AD69A97AA98BA99CA90F947B139B0135
:105BF000AC01C501B4010F94B3192B013C01C701DD
:105C0000D80189AB9AABABABBCAB4FC0B10180E064
:105C100090E00F941A132DA93EA94FA958AD0F94E7
:105C20007B134B015C010F948D1A6B017C01C50144
:105C3000B4010F94161C4B015C01A70196016DA5E0
:105C40007EA58FA598A90F947B132B013C01A5017C
:105C5000940169AD7AAD8BAD9CAD0F947B139B0124
:105C6000AC01C301B2010F94B4192B013C01A50191
:105C700094016DA57EA58FA598A90F947B134B0168
:105C80005C01A701960169AD7AAD8BAD9CAD0F9417
:105C90007B139B01AC01C501B4010F94B31969AB2F
:105CA0007AAB8BAB9CAB19E1D12E9201A301299663
:105CB0006CAD7DAD8EAD9FAD29970F94B4196983FE
:105CC0007A838B839C8329A93AA94BA95CA92D9639
:105CD0006CAD7DAD8EAD9FAD2D970F94B4196D83D6
:105CE0007E838F83988769962CAD3DAD4EAD5FADB9
:105CF000699769857A858B859C850F94B419698726
:105D00007A878B879C876D962CAD3DAD4EAD5FAD90
:105D10006D976D857E858F8598890F94B4196D87F1
:105D20007E878F87988BCE0101960E9463D6C090A4
:105D3000AD0589819A81AB81BC8188A399A3AAA36F
:105D4000BBA38D819E81AF81B8858CA39DA3AEA39B
:105D5000BFA389859A85AB85BC8588A799A7AAA783
:105D6000BBA7AE01485D5F4FBE016C5D7F4FCE01AA
:105D700080960E9476896196ECACFDAC0EAD1FADAD
:105D800061979E01235F3F4FAE01485D5F4FBE01AB
:105D90006C5D7F4FCE0180960E94407C3FEF231ABE
:105DA000330AC7CEC090AD058091B8169091B91650
:105DB000A091BA16B091BB1688A399A3AAA3BBA3BE
:105DC0008091BC169091BD16A091BE16B091BF16E1
:105DD0008CA39DA3AEA3BFA38091C0169091C116C2
:105DE000A091C216B091C31688A799A7AAA7BBA76E
:105DF000AE01485D5F4FBE016C5D7F4FCE01809666
:105E00000E9476896196ECACFDAC0EAD1FAD61973A
:105E100024EC36E1AE01485D5F4FBE016C5D7F4F03
:105E2000CE0180960E94407C0E94D0460E94FD4890
:105E30000C94BA40E0E4FFE484918F010F5F1F4FA0
:105E4000882321F00E944049F801F6CFE9EEF2E004
:105E500084918F010F5F1F4F882311F40C94BA4077
:105E60000E944049F801F4CF80E50E94EB48882366
:105E700029F00E9449486B017C0103C0C12CD12C40
